{
  "contractName": "IndexFund",
  "abi": [
    {
      "inputs": [],
      "stateMutability": "nonpayable",
      "type": "constructor"
    },
    {
      "inputs": [],
      "name": "amplPrice",
      "outputs": [
        {
          "internalType": "int256",
          "name": "",
          "type": "int256"
        }
      ],
      "stateMutability": "view",
      "type": "function",
      "constant": true
    },
    {
      "inputs": [],
      "name": "amplPriceAggregator",
      "outputs": [
        {
          "internalType": "contract AggregatorV3Interface",
          "name": "",
          "type": "address"
        }
      ],
      "stateMutability": "view",
      "type": "function",
      "constant": true
    },
    {
      "inputs": [
        {
          "internalType": "address",
          "name": "",
          "type": "address"
        }
      ],
      "name": "balances",
      "outputs": [
        {
          "internalType": "uint256",
          "name": "",
          "type": "uint256"
        }
      ],
      "stateMutability": "view",
      "type": "function",
      "constant": true
    },
    {
      "inputs": [],
      "name": "batPrice",
      "outputs": [
        {
          "internalType": "int256",
          "name": "",
          "type": "int256"
        }
      ],
      "stateMutability": "view",
      "type": "function",
      "constant": true
    },
    {
      "inputs": [],
      "name": "batPriceAggregator",
      "outputs": [
        {
          "internalType": "contract AggregatorV3Interface",
          "name": "",
          "type": "address"
        }
      ],
      "stateMutability": "view",
      "type": "function",
      "constant": true
    },
    {
      "inputs": [],
      "name": "oceanPrice",
      "outputs": [
        {
          "internalType": "int256",
          "name": "",
          "type": "int256"
        }
      ],
      "stateMutability": "view",
      "type": "function",
      "constant": true
    },
    {
      "inputs": [],
      "name": "oceanPriceAggregator",
      "outputs": [
        {
          "internalType": "contract AggregatorV3Interface",
          "name": "",
          "type": "address"
        }
      ],
      "stateMutability": "view",
      "type": "function",
      "constant": true
    },
    {
      "inputs": [],
      "name": "ohmPrice",
      "outputs": [
        {
          "internalType": "int256",
          "name": "",
          "type": "int256"
        }
      ],
      "stateMutability": "view",
      "type": "function",
      "constant": true
    },
    {
      "inputs": [],
      "name": "ohmPriceAggregator",
      "outputs": [
        {
          "internalType": "contract AggregatorV3Interface",
          "name": "",
          "type": "address"
        }
      ],
      "stateMutability": "view",
      "type": "function",
      "constant": true
    },
    {
      "inputs": [],
      "name": "pricePerToken",
      "outputs": [
        {
          "internalType": "uint256",
          "name": "",
          "type": "uint256"
        }
      ],
      "stateMutability": "view",
      "type": "function",
      "constant": true
    },
    {
      "inputs": [],
      "name": "sushiPrice",
      "outputs": [
        {
          "internalType": "int256",
          "name": "",
          "type": "int256"
        }
      ],
      "stateMutability": "view",
      "type": "function",
      "constant": true
    },
    {
      "inputs": [],
      "name": "sushiPriceAggregator",
      "outputs": [
        {
          "internalType": "contract AggregatorV3Interface",
          "name": "",
          "type": "address"
        }
      ],
      "stateMutability": "view",
      "type": "function",
      "constant": true
    },
    {
      "stateMutability": "payable",
      "type": "receive",
      "payable": true
    },
    {
      "inputs": [
        {
          "internalType": "address",
          "name": "user",
          "type": "address"
        }
      ],
      "name": "balanceOf",
      "outputs": [
        {
          "internalType": "uint256",
          "name": "",
          "type": "uint256"
        }
      ],
      "stateMutability": "view",
      "type": "function",
      "constant": true
    },
    {
      "inputs": [],
      "name": "getBalance",
      "outputs": [
        {
          "internalType": "uint256",
          "name": "",
          "type": "uint256"
        }
      ],
      "stateMutability": "view",
      "type": "function",
      "constant": true
    },
    {
      "inputs": [],
      "name": "getPricesOfAllCoins",
      "outputs": [],
      "stateMutability": "nonpayable",
      "type": "function"
    },
    {
      "inputs": [],
      "name": "calculatePricePerToken",
      "outputs": [],
      "stateMutability": "nonpayable",
      "type": "function"
    },
    {
      "inputs": [
        {
          "internalType": "uint256",
          "name": "amount",
          "type": "uint256"
        }
      ],
      "name": "buyToken",
      "outputs": [],
      "stateMutability": "payable",
      "type": "function",
      "payable": true
    },
    {
      "inputs": [],
      "name": "redeemToken",
      "outputs": [],
      "stateMutability": "nonpayable",
      "type": "function"
    }
  ],
  "bytecode": "0x6080604052600180546001600160a01b0319908116739b0fc4bb9981e5333689d69bdbf66351b9861e621790915560028054821673e572cef69f43c2e488b33924af04bdace19079cf1790556003805482167390c2098473852e2f07678fe1b6d595b1bd9b16ed17905560048054821673492575fdd11a0fcf2c6c719867890a7648d526eb17905560058054909116730d16d4528239e9ee52fa531af613acdb23d88c94179055348015620000b357600080fd5b50620000be620000c4565b6200058d565b620000ce62000153565b600a54620000de906064620004e6565b600954620000ee906064620004e6565b600854620000fe906064620004e6565b6007546200010e906064620004e6565b6006546200011e906064620004e6565b6200012a91906200049f565b6200013691906200049f565b6200014291906200049f565b6200014e91906200049f565b600b55565b60015460408051633fabe5a360e21b815290516000926001600160a01b03169163feaf968c9160048083019260a0929190829003018186803b1580156200019957600080fd5b505afa158015620001ae573d6000803e3d6000fd5b505050506040513d601f19601f82011682018060405250810190620001d491906200044a565b5050509150506000600260009054906101000a90046001600160a01b03166001600160a01b031663feaf968c6040518163ffffffff1660e01b815260040160a06040518083038186803b1580156200022b57600080fd5b505afa15801562000240573d6000803e3d6000fd5b505050506040513d601f19601f820116820180604052508101906200026691906200044a565b5050509150506000600360009054906101000a90046001600160a01b03166001600160a01b031663feaf968c6040518163ffffffff1660e01b815260040160a06040518083038186803b158015620002bd57600080fd5b505afa158015620002d2573d6000803e3d6000fd5b505050506040513d601f19601f82011682018060405250810190620002f891906200044a565b50506004805460408051633fabe5a360e21b81529051949650600095506001600160a01b039091169363feaf968c93508183019260a092829003018186803b1580156200034457600080fd5b505afa15801562000359573d6000803e3d6000fd5b505050506040513d601f19601f820116820180604052508101906200037f91906200044a565b5050509150506000600560009054906101000a90046001600160a01b03166001600160a01b031663feaf968c6040518163ffffffff1660e01b815260040160a06040518083038186803b158015620003d657600080fd5b505afa158015620003eb573d6000803e3d6000fd5b505050506040513d601f19601f820116820180604052508101906200041191906200044a565b5050506006969096555050600792909255600855600955600a55565b80516001600160501b03811681146200044557600080fd5b919050565b600080600080600060a086880312156200046357600080fd5b6200046e866200042d565b945060208601519350604086015192506060860151915062000493608087016200042d565b90509295509295909350565b600080821280156001600160ff1b0384900385131615620004c457620004c462000577565b600160ff1b8390038412811615620004e057620004e062000577565b50500190565b60006001600160ff1b03818413828413808216868404861116156200050f576200050f62000577565b600160ff1b600087128281168783058912161562000531576200053162000577565b6000871292508782058712848416161562000550576200055062000577565b8785058712818416161562000569576200056962000577565b505050929093029392505050565b634e487b7160e01b600052601160045260246000fd5b610951806200059d6000396000f3fe60806040526004361061010d5760003560e01c806370a0823111610095578063b814baee11610064578063b814baee146102a3578063c97fd29d146102b9578063d240d9e9146102d9578063d8484439146102f9578063ead6f87c1461031957600080fd5b806370a08231146102215780637b1b1de614610257578063840fba3f1461026d57806399c3bbb81461028357600080fd5b80632f310bad116100dc5780632f310bad14610193578063409e89ce146101a85780634182a139146101bd578063540d3ea1146101f55780635a888d5d1461020b57600080fd5b806312065fe01461011957806327e235e31461013b57806328ffeabb146101685780632d296bf11461017e57600080fd5b3661011457005b600080fd5b34801561012557600080fd5b50475b6040519081526020015b60405180910390f35b34801561014757600080fd5b5061012861015636600461076f565b60006020819052908152604090205481565b34801561017457600080fd5b50610128600a5481565b61019161018c36600461079f565b61032e565b005b34801561019f57600080fd5b506101916103aa565b3480156101b457600080fd5b5061019161040f565b3480156101c957600080fd5b506002546101dd906001600160a01b031681565b6040516001600160a01b039091168152602001610132565b34801561020157600080fd5b5061012860065481565b34801561021757600080fd5b5061012860075481565b34801561022d57600080fd5b5061012861023c36600461076f565b6001600160a01b031660009081526020819052604090205490565b34801561026357600080fd5b50610128600b5481565b34801561027957600080fd5b5061012860095481565b34801561028f57600080fd5b506001546101dd906001600160a01b031681565b3480156102af57600080fd5b5061012860085481565b3480156102c557600080fd5b506005546101dd906001600160a01b031681565b3480156102e557600080fd5b506004546101dd906001600160a01b031681565b34801561030557600080fd5b506003546101dd906001600160a01b031681565b34801561032557600080fd5b5061019161048a565b600b5461033b90826108e6565b3410156103835760405162461bcd60e51b8152602060048201526012602482015271696e73756666696369656e742066756e647360701b604482015260640160405180910390fd5b33600090815260208190526040812080548392906103a2908490610849565b909155505050565b33600090815260208190526040812054600b549091906103ca90836108e6565b3360008181526020819052604080822082905551929350909183156108fc0291849190818181858888f1935050505015801561040a573d6000803e3d6000fd5b505050565b61041761048a565b600a54610425906064610861565b600954610433906064610861565b600854610441906064610861565b60075461044f906064610861565b60065461045d906064610861565b6104679190610808565b6104719190610808565b61047b9190610808565b6104859190610808565b600b55565b60015460408051633fabe5a360e21b815290516000926001600160a01b03169163feaf968c9160048083019260a0929190829003018186803b1580156104cf57600080fd5b505afa1580156104e3573d6000803e3d6000fd5b505050506040513d601f19601f8201168201806040525081019061050791906107b8565b5050509150506000600260009054906101000a90046001600160a01b03166001600160a01b031663feaf968c6040518163ffffffff1660e01b815260040160a06040518083038186803b15801561055d57600080fd5b505afa158015610571573d6000803e3d6000fd5b505050506040513d601f19601f8201168201806040525081019061059591906107b8565b5050509150506000600360009054906101000a90046001600160a01b03166001600160a01b031663feaf968c6040518163ffffffff1660e01b815260040160a06040518083038186803b1580156105eb57600080fd5b505afa1580156105ff573d6000803e3d6000fd5b505050506040513d601f19601f8201168201806040525081019061062391906107b8565b50506004805460408051633fabe5a360e21b81529051949650600095506001600160a01b039091169363feaf968c93508183019260a092829003018186803b15801561066e57600080fd5b505afa158015610682573d6000803e3d6000fd5b505050506040513d601f19601f820116820180604052508101906106a691906107b8565b5050509150506000600560009054906101000a90046001600160a01b03166001600160a01b031663feaf968c6040518163ffffffff1660e01b815260040160a06040518083038186803b1580156106fc57600080fd5b505afa158015610710573d6000803e3d6000fd5b505050506040513d601f19601f8201168201806040525081019061073491906107b8565b5050506006969096555050600792909255600855600955600a55565b805169ffffffffffffffffffff8116811461076a57600080fd5b919050565b60006020828403121561078157600080fd5b81356001600160a01b038116811461079857600080fd5b9392505050565b6000602082840312156107b157600080fd5b5035919050565b600080600080600060a086880312156107d057600080fd5b6107d986610750565b94506020860151935060408601519250606086015191506107fc60808701610750565b90509295509295909350565b600080821280156001600160ff1b038490038513161561082a5761082a610905565b600160ff1b839003841281161561084357610843610905565b50500190565b6000821982111561085c5761085c610905565b500190565b60006001600160ff1b038184138284138082168684048611161561088757610887610905565b600160ff1b60008712828116878305891216156108a6576108a6610905565b600087129250878205871284841616156108c2576108c2610905565b878505871281841616156108d8576108d8610905565b505050929093029392505050565b600081600019048311821515161561090057610900610905565b500290565b634e487b7160e01b600052601160045260246000fdfea264697066735822122024083577d7209a80019767fb1f5d5f5f2ab13136ea1f55b4fbdeaa56fc74521064736f6c63430008070033",
  "immutableReferences": {},
  "source": "//SPDX-License-Identifier: Unlicense\npragma solidity >=0.7.0 <0.9.0;\n\nimport \"@chainlink/contracts/src/v0.8/interfaces/AggregatorV3Interface.sol\";\n\ncontract IndexFund {\n\n    mapping(address => uint) public balances;\n\n    constructor() {\n        calculatePricePerToken();\n    }    \n\n    function balanceOf(address user) external view returns(uint) {\n        return balances[user]; \n    }\n\n    function getBalance() external view returns(uint) {\n        return address(this).balance;\n    }\n    \n    receive() external payable {}\n\n    // Testing on the Ethereum Mainnet for ERC20-ETH pairs using Chainlink Oracles at https://docs.chain.link/data-feeds/price-feeds/addresses\n    AggregatorV3Interface public oceanPriceAggregator = AggregatorV3Interface(0x9b0FC4bb9981e5333689d69BdBF66351B9861E62);\n    AggregatorV3Interface public sushiPriceAggregator = AggregatorV3Interface(0xe572CeF69f43c2E488b33924AF04BDacE19079cf);\n    AggregatorV3Interface public ohmPriceAggregator = AggregatorV3Interface(0x90c2098473852E2F07678Fe1B6d595b1bd9b16Ed);\n    AggregatorV3Interface public amplPriceAggregator = AggregatorV3Interface(0x492575FDD11a0fCf2C6C719867890a7648d526eB);\n    AggregatorV3Interface public batPriceAggregator = AggregatorV3Interface(0x0d16d4528239e9ee52fa531af613AcdB23D88c94);\n\n    int public oceanPrice;\n    int public sushiPrice;\n    int public ohmPrice;\n    int public amplPrice;\n    int public batPrice;\n\n    function getPricesOfAllCoins() public {\n\n        (,int oceanPrice1,,,) = oceanPriceAggregator.latestRoundData();\n        (,int sushiPrice1,,,) = sushiPriceAggregator.latestRoundData();\n        (,int ohmPrice1,,,) = ohmPriceAggregator.latestRoundData();\n        (,int amplPrice1,,,) = amplPriceAggregator.latestRoundData();\n        (,int batPrice1,,,) = batPriceAggregator.latestRoundData();\n\n        oceanPrice = oceanPrice1;\n        sushiPrice = sushiPrice1;\n        ohmPrice = ohmPrice1;\n        amplPrice = amplPrice1;\n        batPrice = batPrice1;\n\n    }\n\n    uint public pricePerToken;\n\n    function calculatePricePerToken() public {\n        getPricesOfAllCoins();\n        pricePerToken = uint(\n            oceanPrice * 100 + \n            sushiPrice * 100 + \n            ohmPrice * 100 +\n            amplPrice * 100 +\n            batPrice * 100 \n        );\n    }\n\n    function buyToken(uint amount) public payable {\n        require(msg.value >= amount * pricePerToken, \"insufficient funds\");\n        balances[msg.sender] += amount;\n    }\n\n    //function defiIncreased() public {\n    //    pricePerToken = pricePerToken * 2;\n    //}\n\n    function redeemToken() public {\n        uint amountOfTokens = balances[msg.sender];\n        uint amountInWeiToTransfer = amountOfTokens * pricePerToken;\n        balances[msg.sender] = 0;\n        payable(msg.sender).transfer(amountInWeiToTransfer);\n    }\n}\n\n",
  "sourcePath": "/Users/newuser/CryptoIndexFund/contracts/IndexFund.sol",
  "compiler": {
    "name": "solc",
    "version": "0.8.7+commit.e28d00a7.Emscripten.clang"
  },
  "schemaVersion": "3.4.6",
  "updatedAt": "2022-12-09T22:47:54.359Z",
  "networkType": "ethereum",
  "devdoc": {
    "kind": "dev",
    "methods": {},
    "version": 1
  },
  "userdoc": {
    "kind": "user",
    "methods": {},
    "version": 1
  }
}